:020000040800F2
:10000000F0100020B1010008F5360008A133000807
:1000100095350008851200086D3F000800000000BB
:10002000000000000000000000000000B33B0008DA
:100030006513000800000000B13B0008B53B000854
:10004000CB010008CB010008CB010008CB01000860
:10005000CB010008CB010008CB010008CB01000850
:10006000CB010008CB010008CB010008CB01000840
:10007000CB010008CB010008CB010008CB01000830
:10008000CB010008CB010008CB010008CB01000820
:10009000CB010008CB010008CB010008CB01000810
:1000A000CB010008353C0008CB010008CB0100085B
:1000B000CB010008CB010008CB010008CB010008F0
:1000C000CB010008CB010008CB010008CB010008E0
:1000D000CB010008CB010008613F0008CB010008FC
:1000E000CB010008CB010008CB01000800F002F8AA
:1000F00000F04EF80AA090E8000C82448344AAF174
:100100000107DA4501D100F043F8AFF2090EBAE871
:100110000F0013F0010F18BFFB1A43F0010318473B
:10012000D05B0000F05B0000103A24BF78C878C1B3
:10013000FAD8520724BF30C830C144BF04680C60ED
:10014000704700000023002400250026103A28BF35
:1001500078C1FBD8520728BF30C148BF0B60704739
:10016000642900F0C780752900F0C480732900F06D
:100170003083002070471FB500F0E8FB040000202A
:10018000002103F0C5FF401C60601FBD10B510BD0D
:1001900000F0B7FB1146FFF7EEFF03F02BFF00F076
:1001A000E7FB03B4FFF7F2FF03BC00F02BFC0000F9
:1001B0000948804709480047FEE7FEE7FEE7FEE7FB
:1001C000FEE7FEE7FEE7FEE7FEE7FEE70448054937
:1001D000054A064B70470000313C0008ED0000085E
:1001E000F00A0020F0100020F00C0020F00C00209D
:1001F0000FB41CB5084B06AA7B44694600900598CD
:1002000000F0B5FA04460020694600F0C3FA204623
:100210001CBC5DF814FB0000990500000FB47CB510
:100220000C0009AA009001D02044401E084B7B44DA
:1002300069460190089800F09AFA05461CB1002022
:10024000694600F0A7FA28467CBC5DF814FB000064
:100250006D05000070B5044685690068C10601D5CA
:10026000302600E02026C00707D070BDD4E9012168
:1002700030469047206A401C20626D1EF6D570BD46
:1002800070B5044685690078C00707D170BDD4E910
:10029000012120209047206A401C20626D1EF6D567
:1002A00070BD70B50C460546012A05D02878800639
:1002B00000D5EA69002302E0012305E05B1C9342BC
:1002C00002D2E05C0028F9D1A869E618C01AA8613A
:1002D000286A184428622846FFF7BCFF04E0D5E9E5
:1002E000012114F8010B9047B442F8D32846FFF7D8
:1002F000C7FF70BD2DE9F04106460024106875293E
:10030000314616A510D0AFF30080002802DA404233
:1003100013A507E031688A0701D512A502E0490755
:1003200004D511A5012401E0AFF3008000210A22C9
:1003300006F1240709E0B0FBF2FCB0FBF2F302FB8C
:100340001C00303078541846491C0028F3D123464D
:100350002A463046BDE8F04100F0AAB9000000008E
:100360002D0000002B000000200000002DE9F05FB0
:10037000894604464FF0000ADFF874B1FB44C0F828
:1003800020A02046E1688847002874D0252806D0A0
:10039000D4E901219047206A401C2062F1E7002641
:1003A0005F462046E16888472028054607DB312D57
:1003B00005D2781910F8200C08B10643F1E7B00710
:1003C00001D526F00406C4F81CA00027C4F818A024
:1003D0002A2D09D0284603F0E5FD38B304EB870841
:1003E000303DC8F8185019E059F8041B204604EBBA
:1003F00087029161E1688847012F054618D1E069BD
:10040000002820DA26F020061DE0D8F8180000EBBE
:10041000800005EB40003038C8F818002046E1683D
:100420008847054603F0BEFD0028EED1012F0AD013
:100430002E2D08D12046E16888477F1C0546022FF3
:1004400046F02006C4DBA069002803DA404246F0EB
:100450000106A061F00701D026F010066C2D0BD02C
:10046000682D09D04C2D39D06A2D35D0742D35D05A
:100470007A2D33D016E038E0E1682F4620468847D1
:10048000B842054609D16C2F26D04FF48060E16850
:10049000064320468847054604E06C2F1AD04FF4E7
:1004A000807006430DB3A5F14100192802D820350C
:1004B00046F400664A462946204626604E46FFF727
:1004C0004FFE80B101280BD0F61D26F0070000F189
:1004D000080956E74020E4E78020D8E70020D6E767
:1004E00006F104094DE7284652E7206ABDE8F09F6F
:1004F0008E58000070B5064600F0D6F80468054630
:1005000030460A22002100F068F92C6070BD30B539
:1005100005460B462A4613F8014B12F8010B08B1A9
:10052000A042F8D01CB1002802D06D1CF1E728468B
:1005300030BD40EA0103024630B59B0710D14FF0B1
:10054000013400E008C208C91D1B9D4315EAC41F01
:10055000F8D013F0FF0102F8011B0DD01B0AF8E7D9
:1005600011F8013B002B02F8013B05D011F8013BCB
:10057000002B02F8013BF3D130BD10B5431C02E063
:1005800010F8011B71B18107FAD14FF0013202C896
:100590008C1A8C4314EAC211F9D0C01A0A0603D08F
:1005A000C01E10BDC01A10BD0A0401D0801E10BDAF
:1005B0000902FCD0401E10BD4FF000020429C0F01B
:1005C000128010F0030C00F01B80CCF1040CBCF185
:1005D000020F18BF00F8012BA8BF20F8022BA1EBD7
:1005E0000C0100F00DB85FEAC17C24BF00F8012BBC
:1005F00000F8012B48BF00F8012B70474FF00002B4
:1006000000B5134694469646203922BFA0E80C5008
:10061000A0E80C50B1F12001BFF4F7AF090728BFE3
:10062000A0E80C5048BF0CC05DF804EB890028BF5F
:1006300040F8042B08BF704748BF20F8022B11F088
:10064000804F18BF00F8012B704710B5044610F01A
:10065000030F08BF11F0030F40F015804FF0013E6B
:10066000121FC0F20E8051F8043BA3EB0E0C2CEAD3
:10067000030C1CEACE1C08BF40F8043BF0D0A1F1EB
:10068000040102F10402521E08DB11F8013B002BA9
:1006900000F8013BF7D11146FFF78EFF204610BD51
:1006A0007047704770470000004870478C0A002070
:1006B0002DE9F0470D4699469246044600F124087C
:1006C0000168880604D5E06921F01001216000E08E
:1006D0000120A84201DD471B00E00027A1697A192B
:1006E00002EB0900081AA0612078C00602D4204657
:1006F000FFF7B0FD002608E0D4E901211AF8060052
:100700009047206A401C761C20624E45F4DB20781E
:10071000C0060AD52046FFF79DFD06E0D4E9012179
:1007200030209047206A401C2062381EA7F1010744
:10073000F4DC07E0D4E9012118F805009047206AAD
:10074000401C2062281EA5F10105F3DC2046FFF7BE
:1007500097FD2078000602D50220BDE8F087012031
:10076000FBE7000001694A1C02610878704700B588
:100770008FB0CDE901310021059105497944CDE9DA
:10078000031011466846FFF7F1FD0FB000BD0000F1
:10079000E5FFFFFF0A6802F8010B0A607047D1E924
:1007A00000239A4202D2531C0B601070704710B5A0
:1007B000436913B1AFF3008001E0FFF772FD012040
:1007C00010BD127800F124010A7000224A70012243
:1007D000EDE711684FF0FF32E9E72DE9F047914668
:1007E0000F4680460446002614F8015B2DB100F048
:1007F00031F80068405DC007F6D12B2D02D02D2DB9
:1008000018D0641E4A463946204600F02BF827B11E
:100810003968A14201D1C7F800804FF00204710588
:100820000BD54042002803DDFFF73EFF0460A00720
:10083000BDE8F08746F48066E4E70028F8DAFFF7C1
:1008400033FF04606FF00040F2E70000004870479B
:100850008C0A002010B500F079F8001D10BD00BF13
:10086000B13800002DE9F05F824615468B4600271F
:100870000AF10104B9460078302801D09DB113E097
:1008800014F8010B0127782803D0582801D045B16E
:100890000AE00DB1102D07D1002714F8010B102527
:1008A00002E0082500E00A250026B0460EE005FB20
:1008B000080005FB06F101271FFA80F801EB10463E
:1008C000B6F5803F00D3B94614F8010B294600F075
:1008D00041F80028EBDABBF1000F05D00FB1641E20
:1008E00000E05446CBF80040B9F1000F06D0FFF706
:1008F000DBFE02210160C81EBDE8F09F48EA064009
:10090000FAE77546FFF7A2FFAE4605006946534673
:1009100020F00700854618B020B5FFF757FCBDE86A
:1009200020404FF000064FF000074FF000084FF056
:10093000000B21F00701AC46ACE8C009ACE8C009E7
:10094000ACE8C009ACE8C0098D4670470048704764
:10095000AC0A00203A2800D2303820F02002412A88
:1009600001D3A2F13700884201D34FF0FF30704726
:1009700010B50446AFF300802046BDE81040FFF7F5
:1009800010BC00004FF0013C50F8042B51F8043B20
:100990009A4221D1A2EB0C03934313EACC1317D153
:1009A00050F8042B51F8043B9A4215D1A2EB0C03EA
:1009B000934313EACC130BD150F8042B51F8043BAA
:1009C0009A4209D1A2EB0C03934313EACC13DBD078
:1009D0004FF00000704700BFD01A01BAB1FA81F1A0
:1009E00001F0180122FA01F0CB40C1F12001DBB285
:1009F000C0B2C01A2CFA01F3D11A914311EAC31103
:100A0000E6D1704701491820ABBEFEE72600020080
:100A10007047000070B5044600688168C943C90783
:100A200017D1816821F00101816001F075FC054654
:100A30000AE000BF01F070FC401B022804D92068C6
:100A40008068C043C00706D020688068C043C007E4
:100A5000F0D0002070BDA06A40F01000A062E06AF3
:100A600040F00100E062012070BD0000F8B50026F2
:100A70000446009600688168C943C9072DD0816883
:100A800041F001018160164816490068B0FBF1F0A1
:100A900000E0401E00900028FBD101F03DFC05461F
:100AA00016E000BF01F038FC401B022810D9206876
:100AB0008068C043C0070BD0A06A40F01000A0625D
:100AC000E06A40F00100E06284F824600120F8BD93
:100AD00020688068C043C007E4D10020F8BD000052
:100AE0002C00002040420F00704700002DE9F05F0D
:100AF00001F012FC064640211C4801F003FC1C4C8E
:100B000005466069301AB0F57A7F2CD319486179AF
:100B1000194F0078DFF86480DFF86490DFF864A094
:100B2000DFF864B0884206D13878A179884202D1D2
:100B300098F80000E17900F02BF80E486661007823
:100B400060713878A07198F80000E07199F80000A1
:100B500020729AF8000060729BF80000A0720B48A7
:100B6000E57200882082BDE8F09F00000008014087
:100B700034000020030000200400002005000020B5
:100B800006000020070000200800002012000020BE
:100B900010B524488AB004880CB940F26D14402185
:100BA000214801F0AFFB234B204A21491B781278E2
:100BB0000988CDE905032048CDE9071201781F48CF
:100BC000204B02781E481B780078CDE902021E48AF
:100BD000CDE90043049103781C4A4FF480711C480E
:100BE000FFF71CFB1A48FFF7C8FC0446009019A346
:100BF0001FA280212648FFF711FB022001F080FA96
:100C00002348FFF7BAFC81B2214803F0B1F9142060
:100C100001F076FA0AB0A1B2BDE810400C4803F02A
:100C2000A7B90000120000200008014007000020C2
:100C300016000020080000203400002006000020DC
:100C40000400002005000020030000206C5C000868
:100C50000C0900206465766963652F65737038320E
:100C600036365F30312F7374617475730000000085
:100C700041542B4D5154545055425241573D302C04
:100C8000222573222C25642C312C300D0A00000003
:100C90000C0A00202DE9F043C1B000259CA19E481C
:100CA000FFF735FC00287CD19B48FFF766FC4FF628
:100CB000FF79052810D9984B98A2C8216846FFF7FC
:100CC000ADFA6A4699A19B48FFF792FA82B24B4669
:100CD0009849994802F00AFB98A18F48FFF717FC42
:100CE00050B99AA18C48FFF712FC28B998A18A48FC
:100CF000FFF70DFC002825D090A18748FFF707FCDF
:100D000048B195A18B48FFF773FA82B24B468949E7
:100D1000894802F0EBFA98A17F48FFF7F8FB00281A
:100D200026D098A1FFF7F3FB002821D0401CFFF745
:100D3000E1FB02469448017891420FD002700125F0
:100D400092A10CE07448FFF718FC002879D041B05C
:100D500099A1BDE8F0437048FFF7D9BB98A1754849
:100D6000FFF746FA82B24B467249734802F0BEFA68
:100D70009EA16948FFF7CBFBB0B182A1FFF7C7FB8B
:100D800090B1401CFFF7B6FB02469A4801259AA194
:100D900002706848FFF72CFA82B24B4665496648F4
:100DA00000E0B0E002F0A2FA9DA15B48FFF7AFFBC4
:100DB000A0B174A1FFF7ABFB80B1401CFFF79AFB19
:100DC00002469A4801259AA102705A48FFF710FA84
:100DD00082B24B465749584802F088FA9FA14E48C4
:100DE000FFF795FBA04F98B166A1FFF790FB78B194
:100DF000401CFFF77FFB0246387001259BA14D4840
:100E0000FFF7F6F982B24B464A494B4802F06EFAB8
:100E1000A1A14148FFF77BFB0026A24C4FF001083F
:100E200000282ED057A1FFF772FB002829D0401CC4
:100E3000FFF760FB411C05D084F8018048B1012117
:100E400008E057E06670267097A13A48FFF7D0F99E
:100E500010E00021A1482170002935D00022402156
:100E600001F055FA2278002A30D000239CA13148A5
:100E7000FFF7BEF982B24B462E492F4802F036FAF0
:100E80000125A5A12448FFF742FB60B187F8008047
:100E90000125A3A12748FFF7ABF982B24B462549AC
:100EA000254802F023FAA8A11B48FFF730FB78B1D0
:100EB0003E70A7A11F48FFF79BF982B24B461D4920
:100EC0001D4802F013FA04E00122C8E70123CDE730
:100ED0009DB1AAA11748FFF78BF982B24B4615497D
:100EE000154802F003FA00F0CFFDFFF751FE01F0C4
:100EF00013FA606141B0BDE8F08310A10648FFF726
:100F000006FB0028F6D041B0BDE8F04300F0BCBDC0
:100F10004C4F473A000000000C0100204C4F473A6C
:100F20002052583D5B25735D0000000025730D0ABB
:100F3000000000000C050020C80000202B4D51547B
:100F4000545355425245435600000000636D6400FF
:100F50006C65645F000000004C4F473A205061729E
:100F600073696E67204D515454205061796C6F61E4
:100F7000642E2E2E0D0A0000637269625F666C613A
:100F8000670000003A000000060000204C4F473A7E
:100F900020434D44204849543A206B65793D6372A3
:100FA00069625F666C6167206E657756616C756516
:100FB0003D25640D0A000000434C4F53454400009A
:100FC0004C4F473A20434D44204849543A206B65E2
:100FD000793D637269625F666C61672053616D651C
:100FE00056616C75653D25640D0A00006D6F646582
:100FF00000000000030000204C4F473A20434D44BE
:10100000204849543A206B65793D6D6F6465206EC8
:10101000657756616C75653D25640D0A000000001A
:10102000686F745F666C6167000000000400002058
:101030004C4F473A20434D44204849543A206B6571
:10104000793D686F745F666C6167206E6577566185
:101050006C75653D25640D0A0000000066616E5FD9
:10106000666C616700000000050000204C4F473AA5
:1010700020434D44204849543A206B65793D6661D0
:101080006E5F666C6167206E657756616C75653D55
:1010900025640D0A000000006D757369635F666C5E
:1010A00061670000340000204C4F473A20434D4414
:1010B000204849543A206D757369635F666C6167B7
:1010C0003D2D312C20726573746F7265642041551B
:1010D000544F206D6F64650D0A000000000C014044
:1010E0004C4F473A20434D44204849543A206D75AF
:1010F0007369635F666C61673D25642C206F76655C
:1011000072726964653D312C206C756C6C6162751E
:1011100079282564290D0A006C65645F6F6E0000F4
:101120004C4F473A20434D44204849543A206B6580
:10113000793D6C65645F6F6E202866616E5F666CDA
:1011400061673D31290D0A006C65645F6F6666005A
:101150004C4F473A20434D44204849543A206B6550
:10116000793D6C65645F6F6666202866616E5F66B8
:101170006C61673D30290D0A000000004C4F473A72
:10118000204150504C5920434D44202B2050554273
:101190004C495348205354415455530D0A00000004
:1011A000F0B5C1B001F0B8F805464021214801F082
:1011B000A9F8214C10B10020A07038E0A078FF28D9
:1011C00001D2401CA070C0B2052831D3E0780028BD
:1011D0002ED1A1694EF66022681A904201D20029F0
:1011E00026D14FF47A70B5FBF0F614A3174A4FF4EA
:1011F000807101A80096FFF711F801AA14A1154803
:10120000FEF7F6FF82B24FF6FF773B4611491248D0
:1012100002F06CF8324611A10E48FEF7E9FF82B2E7
:101220003B460C490C4802F061F80120A561E070D2
:1012300041B0F0BD000801403400002062616279D5
:1012400063616D2F7472696767657200205C0008C6
:10125000257300000C050020C80000204C4F473AC1
:101260002043525920545249474745522053454E36
:101270005420746F20534F432C2074733D256C759C
:101280000D0A0000FEE7000070B5244C082120463E
:1012900001F038F8224D4FF4FA6658B1102120467B
:1012A00001F030F8B8B12021204601F02BF818B336
:1012B000002070BD304602F07CFE0821204601F07F
:1012C00021F808B9012028700821204601F01AF8F9
:1012D0000028F9D020E0304602F06BFE10212046B5
:1012E00001F010F808B9022028701021204601F002
:1012F00009F80028F9D00FE0304602F05AFE20210C
:10130000204600F0FFFF08B9032028702021204666
:1013100000F0F8FF0028F9D0287870BD000C0140DB
:10132000300000201FB500200190029003904FF480
:10133000807000906946024800F0F4FE1FBD000076
:10134000000801401FB54FF480700090012001900B
:101350000290032003906946014800F0E3FE1FBDA0
:10136000000801407047000010B500212AA208467D
:1013700002F09EFB2AA20021202002F001FC294C51
:10138000E078002841D028A20021282002F090FB1C
:1013900027A20221002002F08BFB21A202212020A3
:1013A00002F0EEFB628A0221282002F0D3FA22A288
:1013B0000421002002F07CFB19A20421402002F04D
:1013C000DFFB207A012822D01EA20421482002F04F
:1013D0006FFB0323E28A0421602002F08BFA1AA239
:1013E0000621002002F064FB0DA20621602002F01D
:1013F000C7FB4021184800F085FF50B111A206211B
:10140000BDE81040682002F053BB14A2BCE715A24F
:10141000DBE714A2F3E70000C4A3CABD000000008C
:101420003A00000000000020CAD6B6AF000000005D
:10143000CCE5CEC200000000CAC7B7F1C4F2B4B216
:1014400000000000B7F10000CAC7B7F1CCFDB5BD80
:10145000BFDEC9F90000000000080140D7D4B6AFD4
:1014600000000000CAC700000C4800B5816985B0C3
:1014700041F0040181618069694600F00400049034
:101480004FF480700090012001900290032003909F
:10149000034800F047FE05B000BD00000010024008
:1014A0000008014070B5FFF74DFF0122134D1402F3
:1014B0002146284600F02BFF0F2002F07AFD002283
:1014C0002146284600F023FF40F2EE2002F071FD95
:1014D00001222146284600F01AFF6E2002F069FD25
:1014E000FFF720FFC82002F064FDFFF72BFF214625
:1014F0002846BDE87040012200F009BF0008014005
:1015000010B5FFF7CFFFCC2002F0D6FD442002F04B
:10151000D3FD4FF4FA7002F04CFDFFF7C3FFCC206F
:1015200002F0CAFDBE2002F0C7FD02F099FD04469C
:1015300002F096FD4FF6FF7101EA0020204302F011
:1015400082FF0022034B02F091FF02F04FFF80B2B6
:1015500010BD00000000E43F30B599B002F0CBF8B8
:10156000002136A2084602F00BFB00244FF4FA7566
:1015700006E0284600F0C4FD641CE4B2052C05D842
:1015800032A133A000F08EFA0028F2D12FA2002160
:10159000502002F0F5FA30A20221002002F0F0FA09
:1015A0002AA130A000F07EFA284600F0A9FD27A26B
:1015B0000221502002F0E4FA2CA20421002002F0C3
:1015C000DFFA02E0284600F09BFD20A12AA000F0EF
:1015D00069FA0028F6D11DA20421502002F0D0FAA9
:1015E00002F089F8002128A2084602F0C9FA2AA3CD
:1015F0002CA22FA16846FEF7FBFD00244FF47A755C
:101600000CE0284600F07CFD641CE4B21E2C05D9D9
:101610002DA20221002002F0B3FAFEE72DA16846B8
:1016200000F040FA0028ECD12DA2022102F0A8FA25
:10163000284600F065FD19B030BD0000312E415440
:1016400020546573742E2E2E000000004F4B0000B6
:1016500041540D0A00000000322E415445302E2E18
:101660002E000000415445300D0A0000332E435730
:101670004D4F44452E2E2E0041542B43574D4F4481
:10168000453D310D0A000000342E57694669204A55
:101690006F696E2E2E2E00003738373937306C7A4E
:1016A000682100005A54455F334234393342000008
:1016B00041542B43574A41503D222573222C222569
:1016C00073220D0A0000000057694669204641490F
:1016D0004C2100005749464920474F5420495000AB
:1016E00057694669204F4B21000000002DE9F04169
:1016F000ADF50E7D01F0FFFF002188A2084602F043
:101700003FFA8AA16846FEF773FD98A1684600F08B
:10171000C9F94FF4FA6840B195A20221002002F005
:101720002FFA404600F0ECFC04E090A2002150208B
:1017300002F026FA91A20221002002F021FA8BA1E8
:1017400092A000F0AFF94FF4FA76304600F0D8FCE2
:1017500000F09AF985A20221502002F011FA3046D9
:1017600000F0CEFC01F0C7FF00218DA2084602F078
:1017700007FA10228DA186A8FEF767FF00278DF8D3
:1017800028728EA20221384602F0FAF986AA0221B6
:10179000282002F0F5F98BA20421002002F0F0F9D4
:1017A000700000F0ADFC0024224689A18BA8FEF752
:1017B0001FFD8BAA0621002002F0E2F987A16846EE
:1017C000FEF716FD69A1684600F06CF978B18D4806
:1017D000FEF7D3FE054614281EDD8A48142241195F
:1017E00080A81439FEF731FF8DF8147222E001F061
:1017F00082FF002184A2084602F0C2F9304600F0C0
:101800007FFC84A20221002002F0BAF985A28BA1FC
:101810006846FEF7EDFC64E0002D07DD14227949EF
:1018200080A8FEF712FF80A8475503E089A180A891
:10183000FEF77FFE01F05FFF002188A2084602F05C
:101840009FF989A20221002002F09AF980AA0221C0
:10185000182002F095F94FF4487000F051FC01F0A7
:101860004AFF00214EA2084602F08AF953A2022143
:10187000002002F085F986AA0221282002F080F9D2
:1018800050A20421002002F07BF9641CE4B2142C65
:1018900020D901F030FF002174A2084602F070F94F
:1018A00046A20221002002F06BF986AA022128201C
:1018B00002F066F943A20421002002F061F96AA255
:1018C0000621002002F05CF980AA0621182002F00F
:1018D00057F9FEE7304600F013FC65E7304600F0AC
:1018E0000FFC22A1684600F0DDF80028F6D11FA207
:1018F0000221502002F044F9304600F001FC01F0D2
:10190000FAFE5DA20221002002F03AF9404600F002
:10191000F7FB0DF50E7DBDE8F0810000352E4D5131
:101920005454204346472E2E2E00000041542B4D88
:10193000515454555345524346473D302C312C2287
:10194000657370383236365F3031222C2265737001
:10195000383236365F3031222C223738373937303B
:10196000222C302C302C22220D0A00004F4B00007C
:10197000434647204641494C21000000362E444949
:1019800053434F4E4E2E2E2E0000000041542B4D3F
:10199000515454444953434F4E4E3D300D0A0000BC
:1019A0004D515454434F4E4E000000003139322EF9
:1019B0003136382E302E323232000000486F7374C8
:1019C0003A000000506F72743A313838330000002A
:1019D0005472793A253032640000000041542B4D96
:1019E000515454434F4E4E3D302C223139322E311A
:1019F00036382E302E323232222C313838332C31D8
:101A00000D0A00000C010020434F4E4E204F4B2189
:101A100000000000372E4D515454205355422E2EB5
:101A20002E0000006465766963652F657370383237
:101A300036365F30312F636D6400000041542B4D0A
:101A40005154545355423D302C222573222C310DD4
:101A50000A0000004E4F5F5258000000434F4E4EA8
:101A6000204641494C00000052583A004D51545410
:101A7000204641494C0000004D51545420436F6EA4
:101A80006E6563746564210010B54FF4806103488E
:101A9000FEF792FD02490020888110BD0C01002054
:101AA0003400002070B586B00D4606464FF47A74B7
:101AB000FEF763FD81B2304602F05AFA10E000BF33
:101AC00000F038F848B929461748FEF720FD20B144
:101AD000FFF7DAFF002006B070BD0A2000F010FB0F
:101AE000641EA4B2ECD21048FEF747FD0025044660
:101AF000142809DD0C481422011968461439FEF730
:101B0000A4FD8DF814500DE0002C07DD14220649C9
:101B10006846FEF79AFD0DF8045003E003A16846FD
:101B2000FEF707FD0120D6E70C0100204E4F5F5263
:101B3000580000000648818931B1C289914205D11F
:101B4000002181810846704701207047C181FBE771
:101B50003400002010B501220449054801F08EFB35
:101B6000FFF7FAFCBDE81040FFF7C0BD38000020C9
:101B7000C800002072B6FEE7F8B50024009490F883
:101B800024202546012A12D0012280F824204A6808
:101B90001F23072A0DD20668776B521E02EB8202C2
:101BA00093409F430B6893401F43776319E00220E3
:101BB000F8BD06680D2A0AD2376BD21F02EB8202EB
:101BC00093409F430B6893401F43376309E0F76AD4
:101BD0000D3A02EB820293409F430B6893401F43F0
:101BE000F7620A68072306680A2A0AD3F7680A3ADE
:101BF00002EB420293409F438B6893401F43F76080
:101C000008E0376902EB420293409F438B689340A0
:101C10001F4337610A68102A01D0112A20D1124BC4
:101C200002689A4217D193681B0219D4936843F44F
:101C3000000393600968102912D10C490C4A096805
:101C4000B1FBF2F101EB8101490000E0491E009176
:101C50000029FBD104E0816A41F020018162012466
:101C600080F824502046F8BD002401402C000020BC
:101C700040420F000068C06C704700002DE9F04141
:101C80004FF0000704003D467ED0A06A002628B928
:101C9000E66284F82460204600F07EF82046FEF7D5
:101CA000B9FEA16AC90600D420B1A06A40F01000B4
:101CB000A06269E0A16A21F4885141F00201A162A9
:101CC0006268E169237B0A4347EA43010A43A1684A
:101CD0004FF48077B94209D0012907D05FF00001A5
:101CE00094F814C0BCF1010F02D00AE03946F7E7BE
:101CF000F3B1A36A43F02003A362E36A43F0010354
:101D0000E3622368D3F804C02CF4694C4CEA010C5C
:101D1000C3F804C021688B68DFF870C003EA0C03C5
:101D200013438B60A168B9420BD0012909D00CE0A4
:101D3000DFF85CC0A3690CEB43330B4343F4006151
:101D4000DFE7218A0D05A5F580152168CB6A23F40C
:101D500070032B43CB62216889680E4B1940914276
:101D600008D1E662A16A21F0020141F00101A162FD
:101D7000BDE8F081A06A20F0020040F01000A062EF
:101D8000E06A40F00100E0620120F1E7FDF7E1FFC9
:101D900000E0FFFFFE0E1FFF00B585B0002100919F
:101DA00001910291039100680E49884218D10E48B2
:101DB000816941F400718161816901F400710491CC
:101DC000816941F0040181618069694600F0040085
:101DD00004901020009003200190044800F0A2F924
:101DE00005B000BD00240140001002400008014081
:101DF0002DE9F84300270D460446009700F08CFAC1
:101E0000804620688168C90508D5A06A40F0200096
:101E1000A06284F824700120BDE8F8834168C905F8
:101E200003D4C06A10F4700F2AD0022000F012FB15
:101E30003B490968B1FBF0F62068036939490B4258
:101E40004FEA61014FEAA1121FD1C3684FEA611C3A
:101E500013EA0C0F19D103690B4225D1C068104257
:101E600022D1142023E0681C0AD02DB100F054FACE
:101E7000A0EB0800A84203D920680068800725D598
:101E8000206800688007EED52DE003690B4202D17F
:101E9000C168114206D0026923490A4206D1C068CE
:101EA000084203D1542002E0292000E0FC204643F0
:101EB000009816E0681C11D02DB100F02DFAA0EBAF
:101EC0000800A8420AD90098B04207D2A06A40F0A0
:101ED0000400A06284F8247003209DE70098401C51
:101EE0000090B042E6D321686FF012000860A06A4B
:101EF00040F40070A06220688068C0F34240072868
:101F00000CD1207B50B9A06A20F48070A062A06A36
:101F1000C00403D4A06A40F00100A06200207BE767
:101F20002C000020244992244992240070B50446D4
:101F300090F8240001280DD0012084F824002046C8
:101F4000FEF794FD02004FF0000005D084F8240055
:101F5000104670BD022070BDA16A40F20123994372
:101F600041F48071A1621F4D23681F49AB4218D113
:101F70000E6816F4702F14D0A66A46F48016A66276
:101F80000E68760505D5A66A26F4005646F48056F6
:101F9000A662A66AF6040AD5E66A26F00606E66296
:101FA00006E0A66A26F48016A6625E68E9E7E062AB
:101FB00084F824006FF00200186020688368C3F37F
:101FC0004243072B05D1A84208D1096811F4702FAC
:101FD00004D0816841F480118160B9E7816841F4DF
:101FE000A001F9E7002801400424014010B504468F
:101FF00090F82400012807D0012084F8240020460E
:10200000FEF708FD10B107E0022010BDA16A21F41F
:10201000885141F00101A162002184F8241010BD13
:1020200010B590F821100022022905D00421816307
:1020300080F82020012010BD01680B6823F00E03FA
:102040000B6001680B6823F001030B6090F84030CF
:10205000C46B012101FA03F3636080F8211080F85A
:102060002020104610BD000010B590F8211000246B
:10207000022903D00421816301243DE001680A683C
:1020800022F00E020A6001680A6822F001020A606A
:102090001A4A0168914201D1012121E0174A143204
:1020A000914201D110211BE0144A2832914201D102
:1020B000891515E0114A3C32914201D189140FE093
:1020C0000E4A5032914202D14FF4803108E00B4A5F
:1020D0006432914202D14FF4801101E04FF08071DF
:1020E000064A083A5160012180F82110002180F849
:1020F0002010416B01B18847204610BD0800024006
:1021000070B5044600F008F90546601C02D004488A
:102110000078044400F000F9401BA042FAD370BDDF
:10212000200000202DE9F84FDFF8B891002409F1D4
:10213000040A0AF1040B23460F270BF1040EC9E031
:102140000125A5402A40AA427DD1674ED1F804C09E
:10215000ACEB0608B44532D014DCBCF1030F3AD026
:1021600009DCBCF1000F2AD0BCF1010F1CD0BCF17E
:10217000020F31D11DE0BCF1110F17D0BCF1120FCD
:102180002AD119E0B8F5881F19D006DCB8F5803FD0
:1021900015D0B8F5801F1FD111E0B8F5001F0ED083
:1021A000B8F5041F18D10AE0CB6815E0CB681B1DF9
:1021B00012E0CB6808330FE0CB680C330CE08B687F
:1021C0002BB1012B4FF0080303D0456104E0042339
:1021D00002E0056100E00023FF2A01D8064601E085
:1021E00000F104064FEA840501D9A5F12005D6F8CF
:1021F000008007FA05FC28EA0C0803FA05F548EA0E
:102200000508C6F800804D68ED0062D5374DAE690F
:1022100046F00106AE61AD6924F0030605F0010544
:102220000095334D06EB050CDCF80850A607360F79
:1022300007FA06F825EA0805DFF8B880404503D11B
:102240004FF0000817E044E0DFF8AC80404502D1D1
:102250004FF001080FE0DFF8A480404502D14FF0B5
:10226000020808E0DFF89880404502D14FF00308EB
:1022700001E04FF0040808FA06F848EA0508CCF82F
:1022800008804D68D9F80060ED034D4601D516432E
:1022900000E096432E604D68DAF80060AD035546C5
:1022A00001D5164300E096432E604D68DBF80060D0
:1022B000ED025D4601D5164300E096432E604D6861
:1022C000DEF80060AD02754601D5164300E0964386
:1022D0002E60641C0D682A46E5407FF431AFBDE8EE
:1022E000F88F0000000401400000111000100240AF
:1022F0000000014000080140000C014000100140B6
:10230000001401408068084000D0012070470AB1E5
:10231000016170470904FBE70148806870470000CD
:1023200020000020024881680278114481607047D3
:1023300020000020074810B5016841F0100101603D
:10234000032000F075F80F2000F006F800F024F8E4
:10235000002010BD0020024070B50D4D04464FF422
:102360007A712878B1FBF0F00A490968B1FBF0F006
:1023700000F0C6FB48B9102C07D200222146501E9F
:1023800000F036F800206C6070BD012070BD0000C8
:10239000200000202C0000200C4808B5816941F085
:1023A00001018161816901F001010091C16941F080
:1023B0008051C161C06900F08050009004484168BC
:1023C00021F0E06141F00071416008BD0010024061
:1023D00000000140002809DB00F01F0201219140AC
:1023E0004009800000F1E020C0F8001170470000B3
:1023F000F0B40E4B1B680C46C3F30223C3F1070570
:10240000042D00D90425191D072901D2002300E05D
:10241000DB1E012606FA05F1491E214099409E4027
:10242000761E16403143F0BC01F0ACBD0CED00E06F
:10243000064900F0070208684FF6FF03184040EA1B
:102440000220034A10430860704700000CED00E0D2
:102450000000FA0510B529A401461DCC86B08DE810
:102460001D002AA02A4C006804900020012923D0D6
:1024700002293AD010291DD161682268D20119D5EC
:10248000C1F38342C9031DF8020009D5616804AA9B
:10249000C1F34041515C1F4AB2FBF1F1484301E0F6
:1024A0001D4948436168490204D440005FF00301BC
:1024B000B0FBF1F006B010BD226AC2F30121012980
:1024C00003D1920701D5C803F4E7022905D1626A56
:1024D000920702D549F64040ECE70329EAD121688A
:1024E0008903E7D54FF22440E4E700F033F961684F
:1024F000C1F38131491C4900DAE7000002030405F9
:10250000060708090A0B0C0D0E0F1010010200003F
:102510000010024000127A0000093D002DE9F84346
:1025200005460078354CC00754D0E0690026C0004D
:1025300008D4E06940F08050E061E069012600F0D5
:10254000805000902E480168C90512D40168804669
:1025500041F480710160FFF7DFFE074605E000BF30
:10256000FFF7DAFEC01B642823D8D8F80000C005A6
:10257000F6D5206A10F4407021D0A98801F440718A
:1025800081421CD0206A1F49012220F440700A6059
:1025900000220A602062C00711D0FFF7BDFE074687
:1025A00041F2883808E000BFFFF7B6FEC11B414585
:1025B00002D90320BDE8F883206A8007F4D5206A99
:1025C000696820F44070084320621EB1E06920F081
:1025D0008050E0612878800705D56068A96820F4FC
:1025E0004040084360602878C00605D56068E96807
:1025F00020F48000084360600020DBE70010024008
:1026000000700040400442422DE9F0470F460500AB
:1026100061D0434E306800F00700B84209D23068FC
:1026200020F0070038433060306800F00700B842FF
:1026300051D128683B4C810712D5400703D560680B
:1026400040F4E06060602878000703D5606840F4DB
:10265000605060606068A96820F0F0000843606026
:102660002878C00728D06868012810D0216802287F
:1026700010D0890700292EDA616821F00301014397
:102680006160FFF749FE804641F288390DE021681C
:102690008903EFE78901EDE7FFF73EFEA0EB0801B4
:1026A000494502D90320BDE8F0876068696800F0F9
:1026B0000C00B0EB810FEFD1306800F00700B8429A
:1026C0000BD9306820F0070038433060306800F0E4
:1026D0000700B84201D00120E5E72878400705D57A
:1026E0006068E96820F4E0600843606028780007CB
:1026F00006D56068296920F4605040EAC100606036
:1027000000F038F86168084AC1F30311515CC84011
:102710000649086006480068FFF71EFE0020C2E771
:102720000020024000100240704600082C000020EB
:10273000240000200448054900684968044AC1F3A0
:102740000221515CC84070472C000020001002405C
:10275000804600080448054900684968044AC1F3F6
:10276000C221515CC84070472C000020001002407C
:102770008046000812A185B00FC98DE80F0014A093
:10278000144A006804905168134801F00C03042BAC
:1027900010D0082B0ED1C1F38343C9031DF80300E9
:1027A0000AD5516804AAC1F34041515C0A4A50431A
:1027B000B0FBF1F005B0704708494843FAE7000064
:1027C00002030405060708090A0B0C0D0E0F101072
:1027D000010200000010024000127A0000093D00D2
:1027E0002DE9F84F040070D02078C04DC00749D0C3
:1027F0006868C0F38100012807D06868C0F38100D1
:10280000022809D16868C00306D52868800339D535
:1028100060680028E7D035E06068B0F5803F0BD0F5
:1028200010B1B0F5A02F11D0286820F480302860B6
:10283000286820F4802002E0286840F48030286076
:10284000606890B1FFF768FD06460AE0286840F42A
:1028500080202860F0E700BFFFF75EFD801B642842
:1028600073D828688003F7D50CE0FFF755FD0646BE
:1028700005E000BFFFF750FD801B6428F0D82868F2
:102880008003F7D420789A4E80074FF001094FF06B
:10289000000839D5686810F00C0F07D06868C0F3DD
:1028A0008100022809D16868C00306D4286880071F
:1028B00014D52069012808D110E02069B0B1C6F80C
:1028C0000090FFF729FD074605E00AE1FFF724FD28
:1028D000C01B0228C4D828688007F7D5286861691A
:1028E00020F0F80040EAC10028600DE0C6F8008042
:1028F000FFF712FD074604E0FFF70EFDC01B02289C
:1029000023D828688007F7D4207800072CD5794889
:10291000A169D9B1C0F80090FFF7FEFC074604E0BA
:10292000FFF7FAFCC01B02280FD8686A8007F7D5AA
:1029300071484FF4FA510068B0FBF1F0009000BF0D
:102940000098411E0091FAD20EE080E0C0F80080AD
:10295000FFF7E2FC074604E0FFF7DEFCC01B02289D
:1029600075D8686A8007F7D42078400760D5E86991
:102970000027C00008D4E86940F08050E861E869A9
:10298000012700F0805000905C480168C90513D40D
:102990000168834641F480710160FFF7BDFC824607
:1029A00006E000BFFFF7B8FCA0EB0A0064284ED891
:1029B000DBF80000C005F5D5E06801280AD008B1B1
:1029C000052813D0286A20F001002862286A20F028
:1029D000040002E0286A40F001002862E06841F249
:1029E000883B98B1FFF798FC82460BE0286A40F0DC
:1029F00004002862EEE700BFFFF78EFCA0EB0A019F
:102A000059455AD8286A8007F6D50CE0FFF784FCB0
:102A1000824605E0FFF780FCA0EB0A0159454CD83F
:102A2000286A8007F6D41FB1E86920F08050E86179
:102A3000E06988B36968C1F38101022944D00228A2
:102A4000C6F8608004D0FFF767FC044638E034E045
:102A5000FFF762FC074604E0FFF75EFCC01B02289C
:102A60002BD828688001F7D4206AB0F5803F05D1C3
:102A70006868A16820F4003008436860D4E9080160
:102A80000843696821F4741108436860C6F86090CF
:102A9000FFF742FC044606E025E000BFFFF73CFCE0
:102AA000001B022809D828688001F7D51BE000BF69
:102AB000FFF732FC001B022802D90320BDE8F88F83
:102AC00028688001F4D40EE00128F7D06868226AF3
:102AD00000F48031914204D1616A00F470108842A0
:102AE00001D00120EAE70020E8E7000000100240E2
:102AF00000004242800442422C000020007000404E
:102B000010B5401EB0F1807F01D3012010BD4FF001
:102B1000E02460610F21601701F034FA0020A06109
:102B200007202061002010BD7047704770B590F8F5
:102B30003C20012A26D0012480F83C40022280F863
:102B40003D2003685A689D6822F070060A68324387
:102B50005A600D4B02689A4208D0B2F1804F05D0FE
:102B60000A4B9A4202D00A4B9A4204D1496825F096
:102B700080031943916080F83D40002180F83C10AB
:102B8000084670BD022070BD002C014000040040CA
:102B90000008004010B5040003D094F83D0010B1C7
:102BA00007E0012010BD002084F83C00204600F022
:102BB0001FF8022084F83D00211D206801F040F834
:102BC000012084F8460084F83E0084F83F0084F831
:102BD000400084F8410084F8420084F8430084F8FF
:102BE000440084F8450084F83D00002010BD00003A
:102BF00008B500680B49884212D10B48816941F43D
:102C0000006181618069002200F40060009011463B
:102C10001920FFF7EDFBBDE808401920FFF7DABBEC
:102C200008BD0000002C01400010024090F83D104B
:102C3000012901D001207047022180F83D10016870
:102C4000CA6842F00102CA6000680B49884208D095
:102C5000B0F1804F05D00949884202D00849884226
:102C600004D1816801F00701062903D0016841F011
:102C70000101016000207047002C01400004004069
:102C80000008004070B5044690F83C00012817D0B9
:102C9000012584F83C50022084F83D0020688268B9
:102CA00022F0770222F47F4282600868502830D0F8
:102CB0000DDC20284DD005DC98B310283BD148E02E
:102CC000022070BD302844D0402834D139E060283B
:102CD00028D0702806D0B0F5805F2CD0B0F5005F0A
:102CE00029D10AE0CB68D1E90121206800F0DEFF9C
:102CF0002068816841F0770109E0CB68D1E90121C2
:102D0000206800F0D3FF2068816841F48041816031
:102D100011E0CA684968206800F0DAFF5021206895
:102D200007E016E0CA684968206800F0E2FF602109
:102D3000206800F0C5FF84F83D50002084F83C0076
:102D400070BDCA684968206800F0C2FF4021206851
:102D5000EFE7226801461046EBE7704770B504467E
:102D6000006801694FF00005C943890715D4C1689F
:102D7000C943890711D4E91E016101202077206829
:102D800080698007204602D0FFF7E7FF04E000F0EB
:102D900098F8204600F096F8257720680169C94325
:102DA000490717D4C168C943490713D46FF0040118
:102DB0000161022020772068806910F4407F20465E
:102DC00002D0FFF7CAFF04E000F07BF8204600F0D5
:102DD00079F8257720680169C943090716D4C168C5
:102DE000C943090712D46FF008010161042020775C
:102DF0002068C0698007204602D0FFF7AEFF04E0DC
:102E000000F05FF8204600F05DF825772068016942
:102E1000C943C90617D4C168C943C90613D46FF0A2
:102E200010010161082020772068C06910F4407FFC
:102E3000204602D0FFF791FF04E000F042F8204660
:102E400000F040F8257720680169C943C90708D117
:102E5000C168C943C90704D1891E0161204600F039
:102E600033F820680169C943090609D4C168C94318
:102E7000090605D46FF0800101612046FFF754FE7A
:102E800020680169C943490609D4C168C943490694
:102E900005D46FF040010161204600F073F820680E
:102EA0000169C94389060BD4C168C943890607D49F
:102EB0006FF0200101612046BDE87040FFF735BE8C
:102EC00070BD70477047000030B52A490068096836
:102ED00088424ED1284801224189491C8BB20021E9
:102EE0004381B3F5FA7F01D341818281038B5B1C5F
:102EF0009BB20383B3F57A7F01D301834283838B33
:102F00005B1C9BB28383B3F5AF6F01D38183C28314
:102F1000427813061CD5D307C38901D05B1C00E09F
:102F20005B1EC3819BB2B3F5006F03D322F0800216
:102F300042708170114A14684FF2FF052C401460F2
:102F400014680F4D03F00703EB5C44EA032313609E
:102F50004278D3070DD0038A40F2DC545B1C9BB24D
:102F60000382A34205D3018222F0010141F08001D6
:102F7000417030BD80000020000000200C0C01409A
:102F8000684600087047704770470000F8B502684F
:102F900004461068D168536910F00F0F4FF0000518
:102FA00053D003F0010601F4907737435FD0C20796
:102FB00005D0CA0503D5226C42F001022264420703
:102FC00005D5DA0703D0226C42F0020222648207A0
:102FD00005D5DA0703D0226C42F00402226402070E
:102FE00007D501F02002324303D0226C42F00802E0
:102FF0002264226C002A34D0800604D5880602D5CB
:10300000204600F0A8FE20684069216CC0F38010C3
:10301000090700D430B3204600F085FE20684169DE
:1030200049061BD5416921F040014161A06BA8B15F
:1030300058494163A06BFFF717F8002811D0A06B27
:10304000416B01B0BDE8F040084783060FD58B0601
:103050000DD52046BDE8F84000F07DBE2046FFF7C4
:1030600093FFF8BD2046FFF78FFF2564F8BD266B60
:103070002023012E52D1C60650D5CE064ED510685B
:1030800050680090506940062AD5A16B08684068D6
:103090000004000CEAD0A68D8642E7D9E085886955
:1030A000202818D0D06820F48070D0602068416952
:1030B00021F0010141612068416921F04001416135
:1030C00084F83E3025632068C16821F01001C1609A
:1030D000A06BFEF7A5FFA08DE18D401A81B219E02B
:1030E000A08DE18D401A81B2E08D0028BED000296C
:1030F000BCD0D06820F49070D0602068426922F083
:103100000102426184F83E3025632068C26822F0E3
:103110001002C2602046FFF736FFF8BD05062BD52A
:103120000D0629D594F83D002128F6D1A068B0F508
:10313000805F01D12069B0B1206A411C2162216801
:1031400000784860E08C401E0004000CE084E4D16C
:103150002068C16821F08001C1602068C16841F029
:103160004001C160F8BD206A0088C0F308005060CB
:10317000206A801C2062E5E74006F3D54806F1D5B9
:10318000D168204621F04001D16084F83D3000F044
:1031900006F9F8BD173D000870B5040004D094F896
:1031A0003D00002510B106E0012070BD84F83C50C0
:1031B000204600F023F8242084F83D002068C168F0
:1031C00021F40051C160204600F020FE2068016912
:1031D00021F4904101612068416921F02A01416197
:1031E0002068C16841F40051C1602564202084F842
:1031F0003D0084F83E00002070BD000030B585B071
:1032000000240094019402940394006818498842B1
:103210002BD11848C16941F40031C161C16901F481
:1032200000310491816941F0040181618069124D8E
:1032300000F004000490042000900220019003207C
:10324000039069462846FEF76DFF0820CDE900048B
:10325000694628460294FEF765FF002211462620A3
:10326000FFF7C6F82620FFF7B5F805B030BD00001F
:1032700000440040001002400008014090F83E3039
:10328000202B0ED159B152B190F83C30012B08D00F
:10329000012380F83C300023036300F013BE0120BB
:1032A000704702207047000010B50C49006809689B
:1032B000884212D101220A490848FFF7DFFF094975
:1032C0000888B0F5806F01D3002008800448064BC1
:1032D000027808881A54401C088010BDC8000020DD
:1032E00038000020400000200C0100202DE9F843A8
:1032F000044690F83D001F4616460D4620284CD146
:10330000C5B1BEB194F83C00012846D0012084F834
:103310003C004FF00008C4F84080212084F83D00B4
:10332000FEF7FAFFA6848146E684A068B0F5805FC8
:1033300003D004E00120BDE8F883206928B12E46BF
:103340005FF0000584F83C800EE00026FAE780215B
:10335000204600F0D2FDA0B9AEB116F8010B2168ED
:103360004860E08C401EE084E08C4B464FF0000249
:1033700000970028EBD14FF04001204600F0BDFD42
:1033800030B10320D7E735F8020BC0F30800E6E7B9
:10339000202084F83D000020CDE70220CBE77047D5
:1033A000FEE7000010B5FDF76FFF10490028087018
:1033B0000BD000230122012808D002280CD00328BA
:1033C00003D1CA70487970B14B7110BDC87808B18B
:1033D000CB7010BDCA7010BDCA70087908B10B71EE
:1033E00010BD0A7110BD4A7110BD00000000002020
:1033F0003EB500211148009101910F4A02910260EF
:1034000081600173017501244FF460220461C2617F
:103410004160FEF733FC08B1FEF7ACFB0420CDE9B8
:1034200000040720029069460448FEF7A5FB002827
:1034300001D0FEF79FFB3EBD00240140500000205C
:103440002DE9F04186B000242748009401940294AD
:103450000394816941F004018161816901F00401F3
:103460000491816941F00801816180691F4F00F07A
:10347000080048F203050490002229463846FEF76A
:1034800046FFDFF86C8000224FF470614046FEF783
:103490003EFF012240214046FEF739FF00950326FA
:1034A00001250396CDE9015469463846FEF73AFEF8
:1034B00040208DE8310069463846FEF733FE4FF470
:1034C0007460CDE90005CDE9024669464046FEF745
:1034D00029FE38208DE8310069464046FEF722FE7D
:1034E00006B0BDE8F0810000001002400008014075
:1034F000000C014010B586B00024174800940194D8
:103500000294039404941349059401603F21C0E997
:10351000011440F2E731C0E9031444618461FFF70C
:1035200039FB08B1FEF726FB4FF480500090694646
:103530000948FFF7A7FB08B1FEF71CFB049404A998
:1035400005480594FFF7F2FA002801D0FEF712FBB8
:1035500006B010BD002C0140800000200C4810B5C2
:103560000A4901604FF4E1314160002181600C2281
:10357000C160C0E904128161C161FFF70DFE00283E
:1035800003D0BDE81040FEF7F5BA10BD004400407E
:10359000C8000020FEE700002DE9F0414F4C002557
:1035A000A08901282AD1A581608A4FF47A77B84290
:1035B00000D20646FDF7A4FF6082B84200D96682B9
:1035C0004748FEF7B3FC40F2E7314548FEF710FCF0
:1035D00018B94348FEF74EFBA0824148FEF706FDAE
:1035E000A08A00F030FF00223E4B00F0A7FD002231
:1035F0003D4B00F03BFF00F0F9FEE082608B0128BC
:1036000002D16583FDF770FAE08B012802D1E583D2
:10361000FDF76CFA354F40213846FEF773FE012660
:1036200028B1A07901280BD1E078012808D1607871
:10363000C10705D1A17819B9A67040F0810060706A
:10364000E07850B940213846FEF75CFE010028487A
:1036500008D001224021FEF75AFEE08A142803D93F
:10366000267202E00022F5E72572E07828B9608A28
:10367000B0F5AF7F12D226716571E571207A4FF4F3
:103680000041012817D0E079012814D000223846E3
:10369000FEF73DFE607980B101220FE0A0F27311C8
:1036A0002571092901D86671E571B0F5BE7FE5D9AC
:1036B0006571E671E2E70122E9E70022022138465E
:1036C000FEF725FE207908B1012200E000223846ED
:1036D000BDE8F0410121FEF71ABE00000000002005
:1036E0005000002000FEAF4000005940000801409B
:1036F000000C0140FEE770B5002404F1B000C0B238
:1037000000F0B4F9002000F0B1F9102000F0AEF99B
:103710000025002000F0BBF96D1CEDB2802DF8D320
:10372000641CE4B2082CE8D370BD000070B51548E5
:1037300086B0816941F008018161816901F0080169
:103740000491816941F0080181618069012400F0E0
:10375000080004904FF48040CDE900040A4E032590
:1037600069463046CDE90245FEF7DCFCE003CDE9D1
:10377000000469463046CDE90245FEF7D3FC06B0A9
:1037800070BD000000100240000C014070B5012225
:10379000104DD40321462846FEF7B9FD0322521EE0
:1037A000FDD20122960331462846FEF7B0FD0222E3
:1037B000521EFDD2002231462846FEF7A8FD022205
:1037C000521EFDD221462846BDE870400022FEF779
:1037D0009EBD0000000C014070B50D4C4FF48045BB
:1037E000002229462046FEF792FD0322521EFDD2FA
:1037F0000122D1032046FEF78AFD0222521EFDD28D
:1038000029462046BDE870400122FEF780BD000039
:10381000000C014010B5FFF789FFAE2000F026F93B
:10382000002000F023F9102000F020F9402000F0E3
:103830001DF9812000F01AF9CF2000F017F9A1201E
:1038400000F014F9C82000F011F9A62000F00EF9DC
:10385000A82000F00BF93F2000F008F9D32000F079
:1038600005F9002000F002F9D52000F0FFF88020D3
:1038700000F0FCF8D92000F0F9F8F12000F0F6F89B
:10388000DA2000F0F3F8122000F0F0F8DB2000F06E
:10389000EDF8402000F0EAF8202000F0E7F80220E0
:1038A00000F0E4F88D2000F0E1F8142000F0DEF8DC
:1038B000A42000F0DBF8A62000F0D8F8AF2000F03C
:1038C000D5F80021BDE810400846AFF3008010B5E0
:1038D0000446B031C8B200F0C9F8102040EA141014
:1038E00000F0C4F804F00F00BDE8104040F0010003
:1038F00000F0BCB82DE9F04700261D4690468946E9
:103900000746344621E0281B401EC1B20A2000F0C1
:103910009FFBB8FBF0F00A21B0FBF1F201FB1202B1
:1039200026B9681E844201DA32B1012607EBC400D1
:10393000C0B24946303204E007EBC400C0B23022C6
:10394000494600F0F7F8641CE4B2AC42DBD3BDE8B2
:10395000F08700002DE9F04104466420B2FBF0F04E
:103960000F460A26B0FBF6F1154606FB11020123AD
:10397000394620461E32FFF7BDFFB5FBF6F0B0FB1F
:10398000F6F106FB110204F10800C0B2012339462A
:103990001E32FFF7AFFF04F11000C0B20BA2394690
:1039A00000F0EEF8B5FBF6F006FB105204F118003B
:1039B000C0B2012339461E32FFF79CFF2034E0B22B
:1039C0003946BDE8F04102A200F072B82E000000B6
:1039D000A1E600002DE9F041234D064600244FF4F6
:1039E00080484FF40047300601D5012200E0002254
:1039F00041462846FEF78BFC0220401EFDD20122E4
:103A000039462846FEF783FC0220401EFDD20022E4
:103A100039462846FEF77BFC0220401EFDD2700688
:103A2000641C060EE4B2082CDDD301224146284670
:103A3000FEF76DFC0221491EFDD2012239462846BF
:103A4000FEF765FC0222521EFDD24FF400512846BB
:103A5000FEF758FC0446002239462846FEF757FC7C
:103A60002046BDE8F0810000000C014010B504467E
:103A7000FFF78CFE7820FFF7ADFF0020FFF7AAFFCD
:103A80002046FFF7A7FFBDE81040FFF7A5BE10B521
:103A90000446FFF77BFE7820FFF79CFF4020FFF7EE
:103AA00099FF2046FFF796FFBDE81040FFF794BE50
:103AB0002DE9F047154689460646DFF8748031E067
:103AC0000020414600EB001311F81340944222D12C
:103AD00001EB43076C787B78A3421CD14946304602
:103AE000FFF7F5FE002438198078FFF7D0FF641C3B
:103AF000E4B2102CF7D309F10100C1B23046FFF750
:103B0000E6FE00243819807CFFF7C1FF641CE4B294
:103B1000102CF7D303E0401CC0B21E28D2D31036BD
:103B2000F6B2AD1C2A78002ACAD1BDE8F0870000A1
:103B3000884600082DE9F0410F4680460025A2F195
:103B40002004FFF7C4FE0D4E05EB0410305CFFF7B8
:103B50009EFF6D1C082DF7D37F1CF9B24046FFF77E
:103B6000B6FE002505EB04103044007AFFF78FFF06
:103B70006D1C082DF6D3BDE8F08100001E4A000838
:103B80002DE9F04117460E46044600250BE031466C
:103B90002046FFF7CFFF0834E4B2782C02D9002486
:103BA000B61CF6B26D1C7A5D002AF0D1BDE8F0813A
:103BB00070477047FEF7B6BB30B593B02821684612
:103BC000FCF71CFD14210AA8FCF718FD00240225AF
:103BD00001200F94049000951020059012944FF44A
:103BE0006010CDE908401194109407956846FEF7DF
:103BF000F7FD08B172B6FEE70F20CDE90A054FF4D4
:103C00008060CDE90C4002210AA80E94FEF7FCFC6E
:103C100008B172B6FEE74FF4004011900F950FA85F
:103C2000FEF77CFC002801D072B6FEE713B030BD71
:103C3000704700000148FFF791B8000080000020A5
:103C4000F0B50268164B174C174D4FF0804798425D
:103C500005D0B84203D0A04201D0A84203D122F03F
:103C600070064A683243984205D0B84203D0A04259
:103C700001D0A84203D122F44074CA6822434C699F
:103C800022F08002224302608A68C2620A6882626D
:103C9000984201D10969016301214161F0BD000031
:103CA000002C0140000400400008004010B584686A
:103CB00042EA032224F47F440A432243826010BD77
:103CC000826822F070020A4342F007018160704767
:103CD00010B5036A046A24F001040462846924F0C4
:103CE000F00444EA021423F00A020A4384610262E7
:103CF00010BD10B5036A23F0100303628369046AE0
:103D000023F4704343EA023224F0A00343EA011192
:103D10008261016210BD10B5406A0021C185C18475
:103D2000FFF732F910BD0168CA6822F49072CA60C8
:103D300001684A6922F001024A61016B012904D13C
:103D40000168CA6822F01002CA60202180F83E1083
:103D500000210163704708B590F83E10222901D078
:103D6000022008BD82684FF480539A4201D1016954
:103D700021B1816A9A421BD04AB10AE00268816A85
:103D80005268C2F308020A80816A891C08E002694D
:103D900072B10268526802F07F020A70816A491C9F
:103DA0008162C18D491E0904090CC18503D019E047
:103DB00002685268F1E70168CA6822F02002CA600E
:103DC0000168CA6822F48072CA6001684A6922F0F8
:103DD00001024A61202180F83E10016B012903D0C5
:103DE000FFF762FA002008BD002101630168CA687C
:103DF00022F01002CA6001680A68D20602D50A6879
:103E000049680091818DFFF7BEF8EBE770B5044675
:103E100000680169E26821F44051114301612169A0
:103E2000A0680843616908432168CA6841F20C63CD
:103E30009A430243CA6020684169A26921F4407133
:103E4000114341611E492068884202D1FEF782FC7D
:103E500001E0FEF76FFC00EBC00101EB00126068AF
:103E600064218000B2FBF0F3B3FBF1F36FF01806AE
:103E70007343B2FBF0F5B2FBF0F605EB830532239A
:103E800003EB0515B5FBF1F5B6FBF1F605F0F00512
:103E900005EB0615B2FBF0F6B2FBF0F0B0FBF1F06B
:103EA0006FF01802504306EB800003EB0010B0FBEC
:103EB000F1F0216800F00F002844886070BD000018
:103EC0000038014081628285C2850021016422227E
:103ED00080F83E2080F83C100168CA6842F4807285
:103EE000CA6001684A6942F001024A610068C1681B
:103EF00041F02001C160002070472DE9F041984653
:103F000017460E460446069D1DE0681C1BD02DB1C9
:103F1000FEF702FAA0EB0800A84214D92068C16895
:103F200021F4D071C1602068416921F00101416133
:103F3000202084F83D0084F83E00002084F83C00F6
:103F40000320BDE8F0812068006836EA000004D054
:103F50000020B842D9D00020F3E70120F9E70000A3
:103F60000148FFF713B80000C8000020FEE700007A
:103F70000A4601464FF6FF730148FFF7B7B9000044
:103F8000C80000200907090E002804DB00F1E0202A
:103F900080F80014704700F00F0000F1E02080F876
:103FA000141D704730380A2801D2012070470020C4
:103FB00070472DE9F0414FF0E0240546A769FEF770
:103FC000ABF9AD010646BD420BD9FEF7A5F9B042EB
:103FD000FBD0781B00F57A40A1698142FCD8BDE88E
:103FE000F0817D1BA069A842F9D9FEF795F9B0428E
:103FF000F8D0F4E7FEF79EF9FFF7DEFDFFF720FAB1
:10400000FFF778FAFFF7AAFAFFF7F2F90D48FEF783
:104010000DFE01220C490D48FFF730F9FDF724FA97
:10402000FFF7F8FBFFF767FBFDF794FDFFF7BAF921
:10403000FFF7B2FAFDF798F9FCF72CFEFDF7B0F8A0
:10404000F4E700008000002038000020C8000020B5
:104050000246012000E05043491EC9B2FBD270471E
:104060002DE9F04100244FF48076124FFDF76AF9F4
:10407000002231463846FEF74AF90120FFF799FF42
:104080006D08012231463846FEF741F9FDF74AF93D
:1040900031463846FEF736F9012801D145F0800552
:1040A0003C20FFF786FF641CE4B2082CDED32846D0
:1040B000BDE8F081000801402DE9F0410546FDF71B
:1040C00041F9124F00244FF48076002231463846E1
:1040D000FEF71DF90120FFF76CFFE80701D0012270
:1040E00000E0002231463846FEF711F93C20FFF788
:1040F00060FF012231463846FEF709F9641C6D085D
:10410000E4B2082CE1D3BDE8F081000000080140D2
:1041100010B500290AD00878002807D0054878444F
:10412000FCF730FC002801D0002010BD0248784484
:1041300010BD0000F21B0000EA1B00002DE9C04189
:1041400030B4DFF8A0C23CEA111418BF3CEA1314E3
:1041500000F0EC8081EA03051CEA111444EAD574EE
:1041600018BF1CEA131500F0C780A4EB05044FF03C
:10417000004545EAC12145EAC32341EA505143EADB
:10418000525304F17F74994204F500344FEAC02081
:104190004FEAC22208BF904200F09C804FEA1365AC
:1041A0000FF24016765D4FEA134506FB05F7C7F19F
:1041B000807706FB07F74FEAD737A7FB03687642FD
:1041C000C8F58038A7FB06CE38BFA8F1010807FB69
:1041D00008E64FF0000EA6FB028CE6FB03CEDCF1F6
:1041E000000CCEF1004E38BFAEF1010EA6FB0C580C
:1041F0004FF000074FF00005E6FB0E87A1FB08C655
:10420000A0FB07CE16EB0E0645F10005E1FB0765A6
:1042100015F1E04E7EBFA4F580345FEA46066D419D
:1042200016F1800745F100054FEA17274FEA0666A9
:1042300047EA0567A6F1DE46B6F1805F4FEA15252D
:104240001FD9384624F0010C05EBC471BCF1FE6F98
:1042500001EB0C1102D8F0BCBDE8008124425CBF28
:1042600001F5801E9EEAC47F02D4F0BCBDE8008147
:10427000244238D4F0BCA1F1C041BDE8004100F0B7
:10428000EDB94FEAD22242EA43524FEAD323A7FBC9
:1042900002864FEAD02040EA415007FB03661EEA3F
:1042A0000E0F4FEAD12105FB026658BFA6EB005660
:1042B000B6EB00564FEA520E4EEAC37E18EB0E0ED6
:1042C00056EB530EBDD518EB02085E417F1C55F12D
:1042D0000005B6E74FF480154FF000074FF00006D9
:1042E0004FF00008ADE7F0BC4FF0000001F1C04115
:1042F00001F00041BDE8008111EA0C1F0CEA131522
:1043000000D00CE013EA0C1F00F025804FF00000F5
:10431000F0BC81EA030101F00041BDE80081F0BC7E
:10432000BDE8004181EA030100F098B9F0BCBDE8A6
:10433000004170B500F044F9097EFC3E00F007B87A
:1043400081EA03014FF0000001F00041704781EA6B
:10435000030100F083B9F0BCBDE800414FF000005C
:1043600021497047FFFDFBF9F7F5F4F2F0EEEDEBB4
:10437000E9E8E6E4E3E1E0DEDDDBDAD8D7D5D4D363
:10438000D1D0CFCDCCCBCAC8C7C6C5C4C2C1C0BFAF
:10439000BEBDBCBBBAB9B8B7B6B5B4B3B2B1B0AFB5
:1043A000AEADACABAAA9A8A8A7A6A5A4A3A3A2A199
:1043B000A09F9F9E9D9C9C9B9A9999989797969554
:1043C00095949393929191908F8F8E8E8D8C8C8BF0
:1043D0008B8A898988888787868585848483838278
:1043E000828181800000FF070000F87F4FEA1153AF
:1043F000A3F58063D3F11E03A8BFD3F1200C08DB23
:104400004FF0004242EAC12252EA505232FA03F01F
:10441000704709420BD4102BC4BF0020704703F52E
:10442000787CBCF1FF3F05D04FF0FF3070474FF074
:104430000000704770B500F0C3F800BF49922480B7
:1044400000207047F0E7B0FA80F310FA03F10AD0C9
:10445000C3F11D0303F580634FEA41504FEA035255
:1044600002EBD12170474FF000007047DFF848C1E0
:1044700070B51CEA111E1EBF1CEA13159EEA0C0F34
:1044800095EA0C0F00F06F8081EA030423EA4C13D5
:104490004EEAD47E21EA4C1141F4801143F480139A
:1044A000AE44A1FB024CA0FB0365AEF17F7E361942
:1044B00055EB0C05A1FB034C4CF10003A0FB021CC7
:1044C00016EB0C06654153F10003094218BF46F094
:1044D000010613F4007F0BD14FEA03314FEA053098
:1044E000340341EA155140EA16506FF003020AE026
:1044F0004FEAC3214FEAC520F40241EA555140EA90
:1045000056506FF0020202EB2E4201EB025585EA93
:10451000CE710AD05FEA440C18BF24F0004450F179
:10452000000041F1000120EAD47040F2FE7C6245B7
:1045300000D270BDA84214BF4FF080444FF04044F9
:10454000002E08BF0024BEF1806FA8BFA1F1C041BA
:10455000BDE8704080F282804FF0000001F1C04160
:1045600001F0004170479EEA0C0F0CEA131518BFCA
:1045700095EA0C0F06D04FF0000081EA030E0EF012
:10458000004170BD00F01CF88900013E00F007B842
:1045900000F009B84FEA430C5FEA5C5C08D081EA9E
:1045A000030100F05BB84FEA410C5FEA5C5CF6D1B6
:1045B0004FF00000014970470000FF070000F87F3E
:1045C0000EF1020E2EF0030E5EF8046B364205D497
:1045D000012A43EB030515F5001F12D8012841EB12
:1045E000010C1CF5001F0CD80ED14FEAD17C15F53B
:1045F000001F0CEB4C0C0CF1020C08BF4CEBD37CF5
:1046000004E04FF0080C01E04FEAD37C0CEB4C05C2
:1046100026FA05F606F00706B6F1040C06D20EEBF4
:10462000860CBDE870404CF0010C6047DFE80CF0F0
:10463000090B02024FF000414FF00000A1F50021EC
:1046400070BD19461046012851EB010418BFD4F57E
:10465000001484BF002001F0004170BD0808A0F5DF
:1046600000114FEA3101704701030206040C0809EA
:104670000000000000000000010203040607080912
:104680000000000001020304CEC21060028C000092
:10469000FE9292929292FE00000004047E01407EFF
:1046A00042427E427E42427E4000CAAA1060028C94
:1046B00000FE929292929292FE00000004047E010B
:1046C0004448507F40407F5048444000A1E60609DE
:1046D00009E6F80C040202020202041E00000000B7
:1046E00000071F3020404040404020100000B6C866
:1046F0000000FC242424FC252624FC24242404007B
:1047000040308F80844C55252525554C8080800075
:10471000CCE5008060F807101010D0FFD01010100A
:104720000000010000FF1008040B08FF080B04083C
:104730001000C9CF000000000000FF404040404092
:10474000400000004040404040407F4040404040EA
:1047500040404000CFC2020202020202FE020242B8
:10476000820202020200000000000000FF000000C0
:10477000000106000000CFDE00FE225A8600FE92F5
:1047800092929292FE00000000FF04080700FF4092
:1047900020030C1422414000C9E8404042CC0040B4
:1047A000A09E8282829EA02020000000003F908870
:1047B00040432C10284641808000D6C3001715D5F1
:1047C0005557557D555755D5151700004040407F2A
:1047D000555555555555557F40404000E3D000F89C
:1047E0000122A0A2A222FE22AA3202FE000000FFA5
:1047F0000010130A4B20170C133880FF0000D6B5A9
:10480000008060F80704E4A4A4BFA4A4E4040000AA
:10481000010000FF40407F4A4A4A4A4A7F40400028
:10482000CAD600002424242424FC2222222322008D
:104830000000020202020242827F0202020202021F
:104840000200D7D4000000F8888C8A89888888F80C
:1048500000000000000000FF44444444444444FF7E
:1048600000000000B6AF4044C4444444401010FF70
:10487000101010F00000103C131014B840300E015E
:104880004080403F0000C4A31010D0FF9014E4AF5C
:10489000A4A4A4AFE4040000040300FF00894B2A91
:1048A0001A0E1A2A4B888000CABD10109090909062
:1048B000901010FF101011161000002060203F1003
:1048C000101000030C102040F800CAC70000007F41
:1048D000494949494949497F000000008141211D5A
:1048E000214181FF8989898989818100B7F100028D
:1048F0008282422212FA06222242428200000101F2
:1049000000FC44444445444444FC00000100C4F21B
:104910000000FE1212121212F21212129E00000079
:1049200040300F40211947807F030E1120400000C6
:10493000B4B20000FC0444444445F64444444444B6
:10494000040040300F2010080601FF010608102067
:104950002000BCEC1010D0FF905020504C434C5025
:1049600020404000040300FF00414458414E60587D
:1049700047404000B2E21060028C00FE02F202FEEC
:1049800000F800FF000004047E018047300F10276C
:104990000047807F0000B5BD4262524AC642526263
:1049A000C200F80000FF000040C444447F242424D7
:1049B00020000F40807F0000BFDE00003E22223E2C
:1049C0000080003E22A23E0000008282424222126B
:1049D0000A070A12224243828200C9F90414D454FD
:1049E000545454DF54545454D414040080601F02AF
:1049F000020202030202020203000000CCFD00FCDE
:104A00000404FC0000FC444444C243424000000F44
:104A100004040F80601F000000FF00000000000081
:104A20000000000000000000000000000000000086
:104A300000F800000000000000333000000000100B
:104A40000C06100C0600000000000000000040C032
:104A50007840C0784000043F04043F040400007024
:104A600088FC08300000001820FF211E0000F0081C
:104A7000F000E018000000211C031E211E0000F0C1
:104A80000888700000001E21232419272110101609
:104A90000E00000000000000000000000000000008
:104AA00000E0180402000000000718204000000287
:104AB0000418E000000000402018070000004040FB
:104AC00080F0804040000202010F0102020000005D
:104AD00000F0000000000101011F010101000000C1
:104AE00000000000000080B0700000000000000026
:104AF00000000000000000010101010101010000AF
:104B00000000000000000030300000000000000045
:104B1000000080601804006018060100000000E03A
:104B200010080810E000000F102020100F000010E7
:104B300010F8000000000020203F2020000000703E
:104B40000808088870000030282422213000003036
:104B50000888884830000018202020110E0000002E
:104B6000C02010F8000000070424243F240000F8AF
:104B70000888880808000019212020110E0000E094
:104B8000108888180000000F112020110E00003836
:104B90000808C83808000000003F0000000000704E
:104BA000880808887000001C222121221C0000E0D7
:104BB00010080810E0000000312222110F00000050
:104BC00000C0C00000000000003030000000000005
:104BD0000080000000000000806000000000000075
:104BE000804020100800000102040810200040400E
:104BF0004040404040000404040404040400000851
:104C00001020408000000020100804020100007005
:104C100048080808F0000000003036010000C030ED
:104C2000C828E810E0000718272423140B00000010
:104C3000C038E0000000203C23020227382008F89A
:104C4000888888700000203F202020110E00C0308E
:104C5000080808083800071820202010080008F865
:104C600008080810E000203F202020100F0008F85E
:104C70008888E8081000203F20202320180008F82A
:104C80008888E8081000203F200003000000C030A2
:104C900008080838000007182020221E020008F823
:104CA00008000008F808203F210101213F200008EA
:104CB00008F8080800000020203F20200000000025
:104CC0000808F8080800C08080807F00000008F80D
:104CD00088C028180800203F20012638200008F846
:104CE000080000000000203F20202020300008F8AD
:104CF000F800F8F80800203F003F003F200008F8C7
:104D000030C00008F808203F200007183F00E010DE
:104D100008080810E0000F10202020100F0008F8ED
:104D200008080808F000203F210101010000E01000
:104D300008080810E0000F18242438504F0008F825
:104D4000888888887000203F2000030C3020007085
:104D50008808080838000038202121221C00180883
:104D600008F8080818000000203F2000000008F89C
:104D700008000008F808001F202020201F000878E5
:104D8000880000C83808000007380E010000F80845
:104D900000F80008F800033C0700073C030008186F
:104DA00068808068180820302C03032C30200838D5
:104DB000C800C83808000000203F2000000010088C
:104DC0000808C838080020382621202018000000D4
:104DD00000FE020202000000007F40404000000C84
:104DE00030C000000000000000010638C0000002D2
:104DF0000202FE000000004040407F000000000072
:104E00000402020204000000000000000000000094
:104E10000000000000008080808080808080000290
:104E2000020400000000000000000000000000007C
:104E30008080808000000019242222223F2008F870
:104E4000008080000000003F112020110E000000B3
:104E5000008080800000000E112020201100000042
:104E600000808088F800000E112020103F200000F4
:104E7000808080800000001F2222222213000080F8
:104E800080F0888888180020203F20200000000043
:104E9000808080808000006B94949493600008F878
:104EA000008080800000203F210000203F20008003
:104EB0009898000000000020203F20200000000003
:104EC00000809898000000C08080807F000008F873
:104ED000000080808000203F24022D302000000848
:104EE00008F8000000000020203F20200000808003
:104EF000808080808000203F20003F20003F808015
:104F0000008080800000203F210000203F20000022
:104F1000808080800000001F202020201F008080D3
:104F200000808000000080FFA12020110E00000002
:104F3000008080808000000E112020A0FF808080F3
:104F400080008080800020203F21200001000000A0
:104F50008080808080000033242424241900008075
:104F600080E0808000000000001F20200000808082
:104F7000000000808000001F202020103F20808043
:104F800080000080808000010E30080601008080D3
:104F90000080008080800F300C030C300F000080F8
:104FA0008000808080000020312E0E312000808023
:104FB00080000080808080818E7018060100008053
:104FC0008080808080000021302C22213000000071
:104FD0000000807C020200000000003F4040000012
:104FE0000000FF00000000000000FF0000000002C1
:104FF000027C800000000040403F000000000006EE
:105000000101020204040000000000000000FFFF94
:105010000303F3F3F3F3F30303FF0000BFBFF3B3A2
:10502000B30F0F707003CCCCBFBF3C43430000CC28
:10503000CC4F4FF37C7C303030307FB3B330308096
:105040000000FFFF03F3F3F3F3F3F303FFFFCFCF0E
:1050500008080909C9C9C9C8C8CFC0C0C9C937C962
:10506000C9F0F0FEFEC60F0FC1C1380606CECEF164
:10507000F10808C10808F6F6CECE30C9C93030397B
:10508000C0C00F0F08C9C90909C9C9C8CFCF8686D2
:1050900006067F3F01FEFEE7E76680800101790793
:1050A000077F7FE0E0678381E6E67F9F9F1E1E010A
:1050B000010606811F1FFFFF606080E0E0FFFFE048
:1050C00004067878678787FFFF1F1F997E7EEFEFC2
:1050D000606090900FFCFC73739380809C9CEF90B9
:1050E00090131383836F10101F1F8FC0E090909F49
:1050F0009FE3E303F3F390908080731C1CE3E303CE
:105100006F6F1313EC83830F0F9F9F0F9F9F1919CE
:105110001E1EF9F9E6E7E70606D907070101E107D0
:1051200007D8D80707D8DEDEE6E6C7D9D927272172
:10513000210101C0E7E7E1E11919C61E1EE7E7DE1C
:105140003E3ED8D8DF3F3FDEDE212100C7C7F3F364
:105150006F6FF0F08F6C6C00006CE3E36F6F90EF9B
:10516000EFF3F3FCFC9FEFEF6C6C8010108080F08D
:10517000F09090101F1F9C9C0F0F70E0E0FFFF9FAE
:105180007C7CEFEF83737383838383E36F6FF3F32D
:105190003030B1B1B1B0B03030F20303FCFC7F77F6
:1051A000738F8F4FCFFDCDCDFEFEB13C3CFDFD3D5D
:1051B0003D8F8F3CCECEF1F1B2B272F1F1C3C3FF9D
:1051C0008282B3B383FFFE03030F0FCD3232FFFFA2
:1051D000C0C0DFDFDFDFDFC0C0FF0000C7C7F8C02F
:1051E000C00101F8F8DF010121210126260707C0CF
:1051F000C0D9D91EDFDFDFDFF9F90021212121D954
:105200001919C7C7C139390606262621FEFE000036
:10521000000000000000000000000000000000008E
:10522000000000000000000000000000000000007E
:1052300000000000000080C0E07030381818181816
:10524000183070E0E0C00000000000000000000026
:105250000000C0F8FEFF1F07010000000000000072
:1052600000000000030FFFFEF8C000000000000077
:1052700000FCFFFFFF030000000000000000000032
:1052800000000000000001FFFFFFFC000000000024
:1052900000FFFFFFFF000000000000000000000012
:1052A00000000000000000FFFFFFFF000000000002
:1052B00000000F7FFFFFE080000000000000000002
:1052C0000000000000E0FEFF7F0F00000000000073
:1052D000000000000103070F1E383070606060603E
:1052E0006030381C1F0F03010000000000000000A8
:1052F00000000000000000000000000000000000AE
:10530000000000000000000000000000000000009D
:10531000000000000000000000000000000000008D
:10532000000000000000000000000000000000007D
:105330000000000000808080808080C0C0E0F0F825
:10534000000000000000000000000000000000005D
:10535000000000000001010101010103FFFFFFFF48
:10536000000000000000000000000000000000003D
:10537000000000000000000000000000FFFFFFFF31
:10538000000000000000000000000000000000001D
:10539000000000000000000000000000FFFFFFFF11
:1053A00000000000000000000000000000000000FD
:1053B000000000000000000000000000FFFFFFFFF1
:1053C00000000000000000000000000000000000DD
:1053D0000000000000606060606070787F7F7F7F09
:1053E00078706060606060000000000000000000F5
:1053F00000000000000000000000000000000000AD
:10540000000000000000000000000000000000009C
:10541000000000000000000000000000000000008C
:10542000000000000000000000000000000000007C
:105430000000000080C0E0E070303818181818181C
:1054400018383070F0E0C08000000000000000005C
:105450000000F8FFFFFFF1C00000000000000000A6
:10546000000000000003FFFFFFFC00000000000040
:10547000000001030303030100000000000000001E
:10548000000080C0F0FE7F3F0F0100000000000020
:10549000000000000000000000000080C0E0703844
:1054A0001C0E0703010000000000000000000000C7
:1054B00000000080C0E0F0381C0E0703010000006F
:1054C0000000000000000000F0F0000000000000FC
:1054D000007C7E7F7B7978787878787878787878AF
:1054E00078787878787C7E7F7F000000000000006C
:1054F00000000000000000000000000000000000AC
:10550000000000000000000000000000000000009B
:10551000000000000000000000000000000000008B
:10552000000000000000000000000000000000007B
:105530000000000080C060303010181818181838AB
:105540003870F0E0C08000000000000000000000A3
:105550000000003E7F7F38000000000000000000D7
:1055600000000007FFFFFFFC00000000000000003B
:105570000000000000000000000080808080C0C0AB
:10558000E060783E1F0F07010000000000000000EF
:105590000000000000000000000001010101010303
:1055A0000303070E1C7CF8F0C000000000000000A0
:1055B0000000E0F0F8F8F8F0000000000000000043
:1055C000000000000080FFFFFF7F000000000000DF
:1055D000000001070F1F1F3830706060606060605E
:1055E000603030381E0F070301000000000000008B
:1055F00000000000000000000000000000000000AB
:10560000000000000000000000000000000000009A
:10561000000000000000000000000000000000008A
:10562000000000000000000000000000000000007A
:10563000000000000000000000000000000000006A
:10564000C0E0F8F8F80000000000000000000000D2
:105650000000000000000000000000C0F0781E07FD
:1056600003FFFFFFFF00000000000000000000003B
:10567000000000000080C0F0381E0703000000009A
:1056800000FFFFFFFF00000000000000000000001E
:1056900080C0F0381E07010000000000000000007C
:1056A00000FFFFFFFF0000000000000000000000FE
:1056B00003030303030303030303030303030303BA
:1056C00003FFFFFFFF0303030303030300000000C6
:1056D000000000000000000000006060606060608A
:1056E000707F7F7F7F7060606060600000000000FE
:1056F00000000000000000000000000000000000AA
:105700000000000000000000000000000000000099
:105710000000000000000000000000000000000089
:105720000000000000000000000000000000000079
:105730000000000000F8F878787878787878787841
:105740007878787878787878380000000000000061
:105750000000000000FF7F000000000000000000CB
:105760000000000000000000000000000000000039
:1057700000000000FEFF80E0703838181C1C1C1C64
:105780001C3C3C78F8F0E0C0000000000000000085
:105790000000000003030300000000000000000000
:1057A00000000000010FFFFFFFF8000000000000F4
:1057B0000000F0F8FCFCFC78000000000000000095
:1057C0000000000000C0FFFFFF1F000000000000FD
:1057D00000000103070F1F383030606060606060B8
:1057E0006030383C1E0F070300000000000000007E
:1057F00000000000000000000000000000000000A9
:105800000000000000000000000000000000000098
:105810000000000000000000000000000000000088
:105820000000000000000000000000000000000078
:105830000000000000000080C0E060303018181840
:1058400018181838F0F0E0C08000000000000000D8
:10585000000080F0FCFE0F030100000000000000CB
:1058600000000000070F0F0F0700000000000000FD
:1058700000F0FFFFFF0180C0E0E07070383838387A
:1058800038387870F0F0E0C08000000000000000C0
:1058900000FFFFFFFF1E07030100000000000000E3
:1058A0000000000000030FFFFFFEF00000000000FA
:1058B00000033FFFFFF88000000000000000000030
:1058C000000000000000C0FFFFFF1F0000000000FC
:1058D0000000000003070F1F3C38307060606060FC
:1058E00060603030381E0F07030000000000000029
:1058F00000000000000000000000000000000000A8
:105900000000000000000000000000000000000097
:105910000000000000000000000000000000000087
:105920000000000000000000000000000000000077
:10593000000000F0F8F8F8F87878787878787878D7
:10594000787878787878F8F87838000000000000E7
:105950000000383F070100000000000000000000C8
:10596000000080E0781E0701000000000000000039
:10597000000000000000000000000000000080E0C7
:10598000FC7F0F010000000000000000000000008C
:105990000000000000000000000000C0F8FEFF1F33
:1059A00003000000000000000000000000000000F4
:1059B000000000000000000000C0FEFFFFFFFF002D
:1059C00000000000000000000000000000000000D7
:1059D0000000000000000000003F7F7F7F7F3F004D
:1059E00000000000000000000000000000000000B7
:1059F00000000000000000000000000000000000A7
:105A00000000000000000000000000000000000096
:105A10000000000000000000000000000000000086
:105A20000000000000000000000000000000000076
:105A30000000000080C0E0F0703038181818181806
:105A400018383070F0E0C080000000000000000056
:105A50000000FCFFFFFF83000000000000000000CA
:105A6000000000000003FFFFFFFC0000000000003A
:105A7000000001070F1F3F7E7CF8F0F0E0E0C0C09F
:105A800080C06070381E1F0F03000000000000007F
:105A90000000C0F0F8FC3E0E0703010101030307FC
:105AA0000F1F1F3EFEFCF8F0C000000000000000C9
:105AB000007FFFFFFF8000000000000000000000EA
:105AC000000000000003FFFFFF7F00000000000057
:105AD000000001070F0F1E38383070606060606092
